{
  "contractName": "TaskMaster",
  "abi": [
    {
      "constant": true,
      "inputs": [
        {
          "name": "",
          "type": "address"
        }
      ],
      "name": "balances",
      "outputs": [
        {
          "name": "",
          "type": "uint256"
        }
      ],
      "payable": false,
      "stateMutability": "view",
      "type": "function"
    },
    {
      "constant": true,
      "inputs": [],
      "name": "owner",
      "outputs": [
        {
          "name": "",
          "type": "address"
        }
      ],
      "payable": false,
      "stateMutability": "view",
      "type": "function"
    },
    {
      "inputs": [],
      "payable": false,
      "stateMutability": "nonpayable",
      "type": "constructor"
    },
    {
      "constant": false,
      "inputs": [
        {
          "name": "doer",
          "type": "address"
        },
        {
          "name": "rewardAmount",
          "type": "uint256"
        }
      ],
      "name": "reward",
      "outputs": [
        {
          "name": "sufficientFunds",
          "type": "bool"
        }
      ],
      "payable": false,
      "stateMutability": "nonpayable",
      "type": "function"
    },
    {
      "constant": true,
      "inputs": [
        {
          "name": "addr",
          "type": "address"
        }
      ],
      "name": "getBalance",
      "outputs": [
        {
          "name": "",
          "type": "uint256"
        }
      ],
      "payable": false,
      "stateMutability": "view",
      "type": "function"
    }
  ],
  "bytecode": "0x608060405234801561001057600080fd5b506127106000803373ffffffffffffffffffffffffffffffffffffffff1673ffffffffffffffffffffffffffffffffffffffff168152602001908152602001600020819055506103d1806100656000396000f300608060405260043610610062576000357c0100000000000000000000000000000000000000000000000000000000900463ffffffff16806321670f221461006757806327e235e3146100cc5780638da5cb5b14610123578063f8b2cb4f1461017a575b600080fd5b34801561007357600080fd5b506100b2600480360381019080803573ffffffffffffffffffffffffffffffffffffffff169060200190929190803590602001909291905050506101d1565b604051808215151515815260200191505060405180910390f35b3480156100d857600080fd5b5061010d600480360381019080803573ffffffffffffffffffffffffffffffffffffffff16906020019092919050505061031f565b6040518082815260200191505060405180910390f35b34801561012f57600080fd5b50610138610337565b604051808273ffffffffffffffffffffffffffffffffffffffff1673ffffffffffffffffffffffffffffffffffffffff16815260200191505060405180910390f35b34801561018657600080fd5b506101bb600480360381019080803573ffffffffffffffffffffffffffffffffffffffff16906020019092919050505061035d565b6040518082815260200191505060405180910390f35b6000600160009054906101000a900473ffffffffffffffffffffffffffffffffffffffff1673ffffffffffffffffffffffffffffffffffffffff163373ffffffffffffffffffffffffffffffffffffffff1614151561022f57600080fd5b81806000803373ffffffffffffffffffffffffffffffffffffffff1673ffffffffffffffffffffffffffffffffffffffff168152602001908152602001600020541015151561027d57600080fd5b826000803373ffffffffffffffffffffffffffffffffffffffff1673ffffffffffffffffffffffffffffffffffffffff16815260200190815260200160002060008282540392505081905550826000808673ffffffffffffffffffffffffffffffffffffffff1673ffffffffffffffffffffffffffffffffffffffff168152602001908152602001600020600082825401925050819055508191505092915050565b60006020528060005260406000206000915090505481565b600160009054906101000a900473ffffffffffffffffffffffffffffffffffffffff1681565b60008060008373ffffffffffffffffffffffffffffffffffffffff1673ffffffffffffffffffffffffffffffffffffffff1681526020019081526020016000205490509190505600a165627a7a723058206b093ab6ede6070a7220f65d7f047cd09e353b4b1390297469fdbcf550d15ea30029",
  "source": "pragma solidity ^0.4.17;\r\n\r\ncontract TaskMaster {\r\n    mapping (address => uint) public balances; //balances of everyone\r\n    address public owner; // owner of the contract\r\n\r\n    constructor() public {\r\n        balances[msg.sender] = 10000;\r\n    }\r\n\r\n    function reward(address doer, uint rewardAmount)\r\n    public\r\n    isOwner()\r\n    hasSufficientFunds(rewardAmount)\r\n    returns(bool sufficientFunds)\r\n    {\r\n        balances[msg.sender] -= rewardAmount;\r\n        balances[doer] += rewardAmount;\r\n        return sufficientFunds;\r\n    }\r\n\r\n    function getBalance(address addr) public view returns(uint) {\r\n        return balances[addr];\r\n    }\r\n\r\n    modifier isOwner() {\r\n        require(msg.sender == owner);\r\n        _;\r\n    }\r\n\r\n    modifier hasSufficientFunds(uint rewardAmount) {\r\n        require(balances[msg.sender] >= rewardAmount);\r\n        _;\r\n    }\r\n}",
  "sourcePath": "C:\\Users\\Velizar Valkov\\Downloads\\ICO\\Books\\truffle-practice\\chapter1\\contracts\\TaskMaster.sol",
  "compiler": {
    "name": "solc",
    "version": "0.4.24+commit.e67f0147.Emscripten.clang"
  },
  "schemaVersion": "2.0.1",
  "updatedAt": "2018-09-04T08:20:24.861Z"
}